:10000000B2C00000C7C00000C5C00000C3C00000EF
:10001000C1C00000BFC00000BDC00000BBC00000E8
:10002000B9C00000B7C00000B5C00000B3C00000F8
:10003000B1C00000AFC00000ADC00000ABC0000008
:10004000A9C00000A7C00000A5C00000A3C0000018
:10005000A1C000009FC000009DC000009BC0000028
:1000600099C0000097C0000095C0000093C0000038
:1000700091C000008FC000008DC000008BC0000048
:1000800089C0000087C0000085C0000083C0000058
:1000900081C000007FC000007DC000007BC0000068
:1000A00079C0000077C0000075C0000073C0000078
:1000B00071C000006FC000006DC000006BC0000088
:1000C00069C0000067C0000065C0000063C0000098
:1000D00061C000005FC000005DC000005BC00000A8
:1000E00059C0000007634236B79BD8A71A39685633
:1000F00018AEBAAB558C1D3CB7CC5763BD6DEDFD4A
:10010000753EF6177231BF000000803F0800000006
:10011000BE922449123EABAAAA2ABECDCCCC4C3EFC
:1001200000000080BEABAAAAAA3E00000000BF00EB
:100130000000803F0000000000084178D3BB4387E7
:10014000D1133D190E3CC3BD4282AD2B3E68EC82FB
:1001500076BED98FE1A93E4C80EFFFBE01C4FF7F80
:100160003F000000000011241FBECFEFD1E2DEBF30
:10017000CDBF00E00CBF12E0A0E0B2E0ECEAFCE092
:1001800000E00BBF02C007900D92A835B107D9F768
:1001900017D08AC535CF10BA80E480937C0087E8F9
:1001A00080937A000895EAE7F0E08081806480839C
:1001B000808186FDFDCF809178009091790008952F
:1001C00067D080E06ED08CE092E09CD180E004D1DA
:1001D000C0D2CB01A5D182E192E094D12FEF83ED83
:1001E00090E3215080409040E1F700C00000EBCF49
:1001F0004F925F926F927F928F929F92AF92BF9237
:10020000CF92DF92EF92FF92CF93DF93EC01609158
:10021000080270910902072E000C880B990BCCD2B2
:100220004B015C01BE01DD0F880B990BC5D220E0AC
:1002300030EC4FE754E4F4D120E030E040EA50E401
:1002400021D46B017C0120E030E040EA50E4C5019C
:10025000B40118D42B013C01A7019601C501B401DA
:1002600011D49B01AC01C301B20175D1A701960164
:10027000D7D1DF91CF91FF90EF90DF90CF90BF90DB
:10028000AF909F908F907F906F905F904F90089568
:100290002EE448E060E875E280E090E0E0D07BCFBB
:1002A00008958F929F92AF92BF92CF92DF92EF927A
:1002B000FF921F93CF93DF93182F86E192E022D114
:1002C000C2E3D0E0C12CD12C76016DDF91DF9B0120
:1002D000AC01C701B60140D16B017C012FEF89E66B
:1002E00098E1215080409040E1F700C00000219744
:1002F00061F7111132C0C0E0D2E020E030E84FECED
:1003000053E4688179818A819B818AD148D32C8189
:100310003D814E815F8184D1F0D14B015C0120E0B1
:1003200030E048E452E4C701B6017AD1A501940156
:10033000A9D30FD270930B0260930A0280E392E07C
:10034000E1D08DE492E0DED080910A0290910B0220
:10035000E7D082E192E0D6D006C08FEF9FEF909376
:100360000B0280930A02DF91CF911F91FF90EF90D3
:10037000DF90CF90BF90AF909F908F900895CF92D5
:10038000DF92EF92FF92CF93DF93C5E0D0E0C12CD4
:10039000D12C760108DF2CDF9B01AC01C701B6012F
:1003A000DBD06B017C012FEF80E792E02150804091
:1003B0009040E1F700C00000219761F720E030E0B5
:1003C00040EA50E4C701B6012BD1DF91CF91FF90F5
:1003D000EF90DF90CF9008954F925F926F927F924F
:1003E0008F929F92AF92BF92CF92DF92EF92FF9245
:1003F000811124C0E0E0F2E0C080D180E280F3808F
:1004000084809580A680B780BADF2B013C01609183
:100410000A0270910B02072E000C880B990BCCD1AD
:100420009B01AC01C301B201FBD0A50194018DD3A6
:100430009B01AC01C701B60125D304C060E070E0A8
:1004400080E89FEBFF90EF90DF90CF90BF90AF9050
:100450009F908F907F906F905F904F9008950F9333
:100460001F93522F8B019C010C521140210931091D
:10047000053D104C21403105D0F545504430B8F5CC
:1004800020E22093C00028E12093C100440F409354
:10049000C200553431F4E2ECF0E020812062208388
:1004A00007C05F3429F4E2ECF0E020812063208370
:1004B000DC01CB01880F991FAA1FBB1F880F991F52
:1004C000AA1FBB1F9C01AD01220F331F441F551FE4
:1004D000220F331F441F551F60E074E284EF90E049
:1004E0008ED3215031093093C5002093C4001F9151
:1004F0000F910895E0ECF0E0908195FFFDCF80939F
:10050000C6000895CF93DF93EC018881882329F0FA
:100510002196F0DF89918111FCCFDF91CF91089571
:10052000CF93DF93CDB7DEB727970FB6F894DEBF32
:100530000FBECDBF4AE0BE016F5F7F4F82D3CE01B9
:100540000196E0DF27960FB6F894DEBF0FBECDBF51
:10055000DF91CF9108955058BB27AA270ED0A3C191
:1005600094D130F099D120F031F49F3F11F41EF472
:1005700064C10EF4E095E7FB5AC1E92FA5D180F3E1
:10058000BA17620773078407950718F071F49EF590
:10059000BDC10EF4E0950B2EBA2FA02D0B01B901B1
:1005A00090010C01CA01A0011124FF27591B99F0E9
:1005B000593F50F4503E68F11A16F040A22F232FF5
:1005C000342F4427585FF3CF469537952795A79545
:1005D000F0405395C9F77EF41F16BA0B620B730BEC
:1005E000840BBAF09150A1F0FF0FBB1F661F771F5D
:1005F000881FC2F70EC0BA0F621F731F841F48F412
:10060000879577956795B795F7959E3F08F0B3CF97
:100610009395880F08F09927EE0F97958795089581
:100620000CD041C139D140F030D130F021F45F3FDE
:1006300019F0FDC051116BC100C146D198F3992347
:10064000C9F35523B1F3951B550BBB27AA27621796
:100650007307840738F09F5F5F4F220F331F441FDB
:10066000AA1FA9F333D00E2E3AF0E0E830D0915013
:100670005040E695001CCAF729D0FE2F27D0660F00
:10068000771F881FBB1F261737074807AB07B0E83F
:1006900009F0BB0B802DBF01FF2793585F4F2AF055
:1006A0009E3F510568F0C3C032C15F3FECF3983EF6
:1006B000DCF3869577956795B795F7959F5FC9F7B2
:1006C000880F911D9695879597F90895E1E0660F3B
:1006D000771F881FBB1F621773078407BA0720F0B4
:1006E000621B730B840BBA0BEE1F88F7E09508951D
:1006F00019F40EF09CC00AC1A0C0EED0C8F3963821
:10070000C0F707F80F92E8942BE33AEA48EB5FE76B
:10071000C7D10F920F920F924DB75EB70F927FD154
:10072000E4EEF0E08DD04F915F91EF91FF91E59570
:10073000EE1FFF1F49F0FE57E0684427EE0F441FED
:10074000FA95E1F74195550BF1D00F9007FEE5C002
:10075000089504D06894B111DAC00895BDD088F02E
:100760009F5790F0B92F9927B751A0F0D1F0660F9D
:10077000771F881F991F1AF0BA95C9F712C0B130B8
:1007800081F0C4D0B1E00895C1C0672F782F8827C9
:10079000B85F39F0B93FCCF3869577956795B395F7
:1007A000D9F73EF490958095709561957F4F8F4F66
:1007B0009F4F0895E89409C097FB3EF4909580956B
:1007C000709561957F4F8F4F9F4F9923A9F0F92F17
:1007D00096E9BB279395F695879577956795B79595
:1007E000F111F8CFFAF4BB0F11F460FF1BC06F5F7B
:1007F0007F4F8F4F9F4F16C0882311F096E911C08D
:10080000772321F09EE8872F762F05C0662371F0AD
:1008100096E8862F70E060E02AF09A95660F771FC1
:10082000881FDAF7880F9695879597F9089597F9B5
:100830009F6780E870E060E008959FEF80EC089586
:10084000DF93CF931F930F93FF92EF92DF927B0181
:100850008C01689405C0DA2EEF0120D1FE01E894E6
:10086000A5912591359145915591AEF3EF0185DE26
:10087000FE019701A801DA9479F7DF90EF90FF90DD
:100880000F911F91CF91DF91089500240A941616BD
:10089000170618060906089500240A94121613066E
:1008A000140605060895092E0394000C11F48823FC
:1008B00052F0BB0F40F4BF2B11F460FF04C06F5F18
:1008C0007F4F8F4F9F4F089557FD9058440F551FEE
:1008D00059F05F3F71F04795880F97FB991F61F0C2
:1008E0009F3F79F087950895121613061406551F39
:1008F000F2CF4695F1DF08C0161617061806991FA5
:10090000F1CF86957105610508940895E894BB2799
:1009100066277727CB0197F908959B01AC0160E02A
:1009200070E080E89FE37CCE82CF5BC1D5DFE8F347
:100930009923D9F3940F511DBBF39150504094F07B
:1009400059F0882332F0660F771F881F915050406E
:10095000C1F79E3F510544F7880F911D96958795E5
:1009600097F908955F3FACF0983E9CF0BB278695C1
:1009700077956795B79508F4B1609395C1F7BB0F6C
:1009800058F711F460FFE8CF6F5F7F4F8F4F9F4F95
:10099000E3CFBDCF0EF025C150CF689448CF9CDF88
:1009A000C8F39923D1F3C6F3DF93CF931F930F932B
:1009B000FF92C92FDD2788232AF02197660F771F22
:1009C000881FDAF720E030E040E85FEB9FE38839EA
:1009D00020F0803E30F021968F77BEDDECE0F1E034
:1009E00003C0BADDE9E3F1E02BDF8B01BE01EC01CE
:1009F000FB2E6F5771097595771F880B990BDCDEFD
:100A000028E132E741E35FE349D0AF2D9801AE0121
:100A1000FF900F911F91CF91DF91AFDD44CFFA018D
:100A2000DC01AA0FBB1F9B01AC01BF5728F4222792
:100A30003327442750781FC0B75188F4AB2F0024C8
:100A4000469537952795011CA395D2F3002069F0B0
:100A5000220F331F441FB395DAF30DD07CCD6130E4
:100A60007105A0E88A07B94630F49B01AC016627FE
:100A7000772788279078309621F02083318342832E
:100A8000538308950BD00FCF00DF28F005DF18F057
:100A9000952309F0CCCED1CE112439CF15DFA0F3A8
:100AA000959FD1F3950F50E0551F629FF001729F03
:100AB000BB27F00DB11D639FAA27F00DB11DAA1F22
:100AC000649F6627B00DA11D661F829F2227B00D6F
:100AD000A11D621F739FB00DA11D621F839FA00DFA
:100AE000611D221F749F3327A00D611D231F849F4A
:100AF000600D211D822F762F6A2F11249F575040A1
:100B00008AF0E1F088234AF0EE0FFF1FBB1F661F3B
:100B1000771F881F91505040A9F79E3F510570F0F4
:100B200086CEF5CE5F3FECF3983EDCF38695779565
:100B30006795B795F795E7959F5FC1F7FE2B880FEF
:100B4000911D9695879597F90895FA01EE0FFF1F6D
:100B500030962105310599F16115710561F48038F0
:100B6000BFE39B0749F168949038810561F08038B4
:100B7000BFEF9B0741F0992342F5FF3FE1053105A7
:100B8000210511F1E8940894E795D901AA2329F4E5
:100B9000AB2FBE2FF85FD0F310C0FF5F70F4A695A7
:100BA000E0F7F73950F019F0FF3A38F49F779F9348
:100BB0000CD00F9007FC905808953EF03ECE60E0B8
:100BC00070E080E89FE308954FE79F775F934F932E
:100BD0003F932F93E4DE2F913F914F915F9152DF2E
:100BE0008CCD9F3F31F0915020F487957795679594
:100BF000B795880F911D9695879597F90895A1E26D
:100C00001A2EAA1BBB1BFD010DC0AA1FBB1FEE1F86
:100C1000FF1FA217B307E407F50720F0A21BB30BD1
:100C2000E40BF50B661F771F881F991F1A9469F74D
:100C300060957095809590959B01AC01BD01CF01A9
:100C40000895BB274A3031F4992322F4BDE29095F0
:100C500081959F4F01C0BB27FB015527AA27880F0D
:100C6000991FAA1FA41710F0A41B83955051B9F720
:100C7000A05DAA3308F0A95DA193009779F7B1119F
:100C8000B1931192CB0100C0DC01FC01672F71917F
:100C90007723E1F7329704C07C916D937083629162
:0C0CA000AE17BF07C8F30895F894FFCF0B
:100CAC00A4F0E5427D3F3DC013000A00434F3220C3
:100CBC003A000D200A0043616C6962726174696EBE
:100CCC0067204D512073656E736F72200A200D00E2
:100CDC0043616C6962726174696F6E20646F6E65DA
:100CEC0020666F7220434F32200A200D00526F2075
:080CFC0076616C75653A200079
:00000001FF
